:040000003AEF0BF0D8
:08000800046ED8CF05F0E0CF33
:1000100006F00001E9CF0CF0EACF07F0E1CF08F0DD
:10002000E2CF09F0D9CF0AF0DACF0BF0F3CF12F01C
:10003000F4CF13F0FACF14F0F5CF15F0F6CF16F099
:10004000F7CF17F000C00EF001C00FF002C010F0A3
:1000500003C011F0F2AA30EF00F0F2B473EF00F039
:100060009DA036EF00F09EB080EF00F00EC000F0D3
:100070000FC001F010C002F011C003F00CC0E9FF86
:1000800007C0EAFF078E08C0E1FF09C0E2FF0AC00F
:10009000D9FF0BC0DAFF12C0F3FF13C0F4FF14C086
:1000A000FAFF15C0F5FF16C0F6FF17C0F7FF0450A2
:1000B00006C0E0FF05C0D8FF1000F76ACA0FF66E51
:1000C000000EF7220900F5501200280C0106F76A0D
:1000D000DE0FF66E000EF7220900F55012003030E8
:1000E0003030303000003E2A3E50030802E23E6AC3
:1000F0003D80D76AC80ED66EF294F29436EF00F0C7
:10010000000E3DB2010E010F010B3D92E8B03D82A1
:10011000CF6ADC0ECE6E9E909E9036EF00F00C20E3
:10012000456C656374726F2D467275697453746F94
:1001300072650A00312E204E65772050726F64750B
:1001400063740A00322E20507572636861736520F3
:100150004D6F646500005375636365737366756CFA
:1001600020536176650054686520536176652046AA
:1001700061696C656400496E76616C696420205029
:10018000726963650000204578697374696E672041
:10019000534B552000004578697374696E672020C1
:1001A0004E616D65000020436865636B20466169A0
:1001B0006C65642000002020202043616E63656C24
:1001C000202020200000202020202053756363651C
:1001D000737366756C0A202020205472616E7361FF
:1001E0006374696F6E0020202020202043616E63BD
:1001F000656C65640000436F6D65204261636B2030
:10020000536F6F6E2563256300002020202020207F
:1002100000002020202020202000436865636B69B7
:100220006E672000202D253032752025730A202D81
:10023000242020256C752E30302563256300202571
:100240003032752025730A20242020256C752E302D
:1002500030256325630050524943453A2024202528
:100260006C752E30300A00005155414E5449545996
:100270003A2025750A00544F54414C3A202024203E
:10028000256C752E30300A00544F54414C3A2024CE
:1002900020256C752E30300A5041593A20202024F8
:1002A00020256C752E303025632563005041593A66
:1002B00020202420256C752E30300A43484E473AC2
:1002C000202420256C752E303025632563000C54C6
:1002D0004F54414C3A20202420256C752E30300A92
:1002E00000005041593A2020202420256C752E30E2
:1002F000300A00004348414E47453A202420256CEF
:10030000642E30300A000C534B553A2020202573C0
:100310000A004E414D453A20202573200A005052D4
:100320004943453A2024202530346C752E30300A5C
:100330000000EA6A950EE96EEF500DE0010E016EC5
:10034000006A002EFED7012EFBD79E0E006E002EF7
:10035000FED7EF2EF3D712009B39F00B006E0F0E75
:1003600081140010816E0000818000D08190120005
:10037000F00E936E818400008180000081380F0BA5
:100380009B6F819000008180000081380F0B9A6F75
:100390008190000E936E9B39006EF00E0016005097
:1003A0009A11016ED6EF01F08192E2D701C09AF066
:1003B00001BEFBD798A1819298B1818200008194FF
:1003C0000000819099399A6F0F0E9A179AC09BF08E
:1003D000C3DF99510F0B9A6F9B6FBEDF1200000EA7
:1003E000936E8192819481900F0E956FA2DF010E22
:1003F000576E5750030808E3030E9B6FADDF050EE1
:10040000956F97DF572AF5D7020E9B6FA5DF576AC6
:100410005750030809E3036A57504FDE586E986B34
:10042000996FC2DF572AF4D78BEF0BF00F0E956E42
:100430008DEF0BF0010E965DFC0F0EE2040F34EF12
:1004400002F0800E976F08D0C00E976F05D0940E03
:10045000976F02D0D40E976F010E955D9727986B1A
:1004600097C099F0A1DF1200E824F76AF736830FEE
:10047000F66E040EF7220A00F550FA6E0800F550E9
:10048000F96E420448044E04540494510C0A05E0E9
:10049000060A0DE0020A12E016D0986B010E996F61
:1004A00083DF010E1B6E020E956F43DF11D01B2AF6
:1004B000010E956F1BC096F0BDDF0AD0986B100E31
:1004C000996F72DF05D0010E986F94C099F06CDFC0
:1004D00012000900F5520CE0F6CF81F0F7CF82F060
:1004E000F5CF94F0D2DF81C0F6FF82C0F7FFF1D7DD
:1004F00012007869796B7951030834E3F70E006EC6
:100500007951016E04E0D8900032012EFCD70050E2
:100510000038F00B006E0F0E83140010836E7A6BA0
:100520007A5103081DE383500F0B7B6FF70E006EAB
:100530007A51016E04E0D8900032012EFCD70050B1
:100540007B5D0CE17951040DF3507A25036A2D0F80
:10055000E96E000E0320EA6EEFCF78F07A2BE0D739
:10056000792BC9D7775309E078511C5C06E078C035
:100570001CF078C001F00DD008D0783D06D01CC02A
:1005800078F01C6878C001F004D078C01CF0FF0E31
:10059000016E12009EA8FED7AD6E12008251016A54
:1005A000815D03E281C000F00CD0006A080E836F09
:1005B000813700368251005CD8B0006E0136832F3F
:1005C000F7D71200016A026A006A036A7C5102E1ED
:1005D0007B5118E0100E7D6FD89079377A3700364E
:1005E00003367C51035C02E17B51005C07E37B51E5
:1005F000005ED8A003067C51035ED8800136023627
:100600007D2FEAD7120077517903F3CF01F0F4CFB1
:1006100000F07A03F350002678517903F35000205C
:10062000026E12000900F6CF8CF0F7CF8DF0F5CFF7
:1006300094F02BDF8CC0F6FF8DC0F7FF8B2FF2D725
:100640001200EF520FE0EACF8CF0E9CF8BF0EFCF42
:1006500094F01BDF8CC0EAFF8BC0E9FFE92AD8B415
:10066000EA2AEFD71200EACF93F0E9CF92F08C3963
:10067000F0098E6F8E27E20F8F6F320F916F8C51C2
:100680000F0B8F278F279127E90F906F90279027C7
:100690008B390F0B9027912790379137911F913706
:1006A0008B510F0B91278E37070E8D6F0A0E900717
:1006B0009127FDE38F079027FDE38E078F27FDE34A
:1006C0008D078E27FDE3EA6A8D0EE96E070E9215FF
:1006D000929DE926000EEA22E950910803E1EA52D0
:1006E00001E1928DEF50006E08E192BD06D092B903
:1006F00013D092B702D0200E03D092879299300E79
:100700000026EACF8CF0E9CF8BF000C094F0BDDE7C
:100710008CC0EAFF8BC0E9FFEE5092ADDDD712002E
:10072000060EF66E030EF76E080E8B6F7BDFEA6A1D
:10073000770EE96E86DF0A0E946FA7DE120EF66E54
:10074000030EF76E070E8B6F6DDFEA6A7E0EE96EA1
:1007500078DF200E946F99DE0A0E946F96DE1E0EDF
:10076000F66E030EF76E090E8B6F5CDF090EE96EF5
:100770008AC08CF089C08BF076DF2C0EF66E030EEB
:10078000F76E040E8B6F4EDFDAEF05F05D6A5F6A7D
:10079000410E5E6E606B010E616F000EFBDE9EAA65
:1007A000FED7AECF5DF00C0E946F6FDE050E766F48
:1007B0007651050818E3036A7651620FE96E000E60
:1007C0000320EA6E5DC081F00A0E826FE7DE300E14
:1007D0000024EF6E5DC081F00A0E826FDFDE01C083
:1007E0005DF07607E5D7686B766B765109080BE309
:1007F000036A7651690FE96E000E0320EA6E200E3F
:10080000EF6E762BF2D7036A7651690FE96E000E10
:100810000320EA6EEF6A756B746B010E776F69DE09
:1008200001C05DF05D500E0A03E0010A0EE013D036
:10083000612B606B5F6A410E5E6E6151020804E2DB
:10084000620E016E026AE2D106D075697469620EA9
:10085000016E026ADBD1615107E0010AD8B4B9D058
:10086000030AD8B421D17BD15D50FF0A0BE0F50A11
:100870000AE0010A3FE0070AD8B473D0010AD8B4ED
:100880007DD082D0A5D0672B050E766F76531EE003
:10089000036A7651620FE96E000E0320EA6EEF5094
:1008A0003A0812E1036A7651620FE96E000E0320E6
:1008B000EA6E300EEF6E010E765D036A620FE96E2E
:1008C000000E0320EA6EEF2A7607E0D7036A76511E
:1008D000620FE96E000E0320EA6EEF503A0809E15C
:1008E000036A7651620FE96E000E0320EA6E300E45
:1008F000EF6E6ED06707050E766F76531EE0036AC3
:100900007651620FE96E000E0320EA6EEF502F0859
:1009100012E1036A7651620FE96E000E0320EA6E5F
:10092000390EEF6E010E765D036A620FE96E000EFE
:100930000320EA6EEF067607E0D7036A7651620F6E
:10094000E96E000E0320EA6EEF502F0809E1036AFA
:100950007651620FE96E000E0320EA6E390EEF6EDB
:1009600037D0EA6A620EE96E000E67EC00F00A000A
:100970000900F550EE6E0009FBE12AD0612B606B97
:100980005F6A410E5E6E24D05D50090821E3766BEC
:10099000765104081AE3036A7651620F016E000E65
:1009A000032203C078F0010E7625036A620FE96E18
:1009B000000E0320EA6EEFCF79F078C0EAFF01C0A5
:1009C000E9FF79C0EFFF762BE3D7300E5D24676F28
:1009D000C6D05D50FF0A09E0F50A08E0010A1BE0F5
:1009E000070A2FE0010A46E04ED054D05E5020089E
:1009F00006E15F5204E15F6A410E5E6E0BD05E2A33
:100A0000D8B45F2A5F5203E15E505A0803E25F6A7E
:100A1000200E5E6E3FD05E50200806E15F5204E17A
:100A20005F6A5A0E5E6E0CD05E50D8B45F065E06EA
:100A30005F5206E15E50400803E35F6A200E5E6E7F
:100A400029D0036A6051690FE96E000E0320EA6E37
:100A5000200EEF6E6007036A6051690FE96E000EA9
:100A60000320EA6E5F6AEFCF5EF06051C80801E2D2
:100A7000610710D0602B5F6A410E5E6E60510808FE
:100A800001E2612B07D05D50090804E3300E5D24BC
:100A90005E6E5F6A036A6051690FE96E000E0320A3
:100AA000EA6E5EC0EFFF5BD05D50FF0A07E0F50A1B
:100AB00006E0010A17E0070A28E02BD050D0010E0B
:100AC0007425776F000E7521786F7A6F77C079F093
:100AD000270E7C6F100E7B6F75DD00C074F003C0B5
:100AE00075F03DD00F0E7425776F270E7521786F46
:100AF0007A6F77C079F0270E7C6F100E7B6F62DD06
:100B000000C074F003C075F02AD0756B746B610778
:100B100026D05D50090823E37551020812E2FF0A4E
:100B200003E17451E7080DE275C07AF074C079F002
:100B3000030E7C6FE80E7B6F45DD00C074F003C0D0
:100B400075F075C078F074C077F07A6B0A0E796F23
:100B50005ADD5D500124746F000E0220756F3DA0B8
:100B600054D062C077F063C078F064C079F065C09B
:100B70007AF066C07BF067C07CF068C07DF069C029
:100B80007EF06AC07FF06BC080F06CC081F06DC0F9
:100B900082F06EC083F06FC084F070C085F071C0C9
:100BA00086F072C087F073C088F074C089F075C099
:100BB0008AF0B6D53DA228D0615105E0010A0EE0C9
:100BC000030A16E020D0090E956F010E966F32DCF5
:100BD0000A0EF66E020EF76E7CDC16D0090E60254A
:100BE000776F956F020E966F25DC94694EDC0CD002
:100BF0000B0E956F030E966F1DDC120EF66E020E35
:100C0000F76E67DC01D0616B3D9007D6EAEF0BF021
:100C100096C098F095C097F098C003F097C0E9FF90
:100C200098C0EAFFEF5204E0972BD8B4982BF4D782
:100C30009551975D006E96519859036E00C001F072
:100C4000120081C0E9FF82C0EAFFEFCF85F084C0C7
:100C500003F083C0E9FF84C0EAFFEF50855D15E132
:100C600082C003F081C0E9FF03C0EAFFEF5203E155
:100C7000000E016E1FD082C003F08151812BD8B4C9
:100C8000822B832BD8B4842BDCD782C003F081C0A5
:100C9000E9FF82C0EAFFEFCF85F084C003F083C094
:100CA000E9FF84C0EAFFEF50855D02E2FF0E01D04C
:100CB000010E016E1200000E6DDC9EAAFED7AECFB3
:100CC0006CF0695305E16A5303E1030E016E7DD0B8
:100CD0006B6B6C516B5DD8B076D00A0E956F99EC4A
:100CE00001F0010E57DC6B5155DC010E53DCEA6A52
:100CF0006D0EE96EE9069EAAFED7AECFECFF0D0E93
:100D0000EF5CF9E1EC6A966B6D0E956F81DF015037
:100D1000060817E1966B740E956F7ADF01500A088A
:100D200010E17F5302E180530CE08051270809E372
:100D300003E17F510F0805E3010E2CDC010E016E6B
:100D400004D0000E27DC000E016E826B570E816FFF
:100D5000846B6D0E836F75DF015203E1010E016E2E
:100D600034D0826B5E0E816F846B740E836F69DF8B
:100D7000015203E1020E016E28D06BC081F0320EE9
:100D8000826F0CDC005211E10C0E946F45EC02F006
:100D9000040E956F020E966F1AEC02F01A0EF66EA4
:100DA000020EF76E69EC02F00CD06BC081F00A0EF7
:100DB000826FCEEC02F0005204E12E0E946F45ECEF
:100DC00002F06B2B86D7000E016E2CEF0CF0EF5269
:100DD00010E0EACF75F0E9CF74F0EF509EA8FED78F
:100DE000AD6E75C0EAFF74C0E9FFE92AD8B4EA2AFB
:100DF000EED712009EAAFED7AE506AC06BF06C6BA5
:100E0000EA6A570EE96EE3DF000E9EA8FED7AD6ECC
:100E1000EA6A5E0EE96EDBDF000E9EA8FED7AD6EBD
:100E200069519EA8FED7AD6E6B519EA8FED7AD6EE0
:100E30000D0E9EA8FED7AD6E9EAAFED7AECF01F0D6
:100E40006EEF0CF0015074C081F0640E826FCEEC36
:100E500002F000C074F00150300E07E175A30DD010
:100E600075B70BD075B9200E03D07597759975813C
:100E7000012601509EA8FED7AD6E74C081F00A0E07
:100E8000826FCEEC02F000C074F00150300E06E12B
:100E900075B709D075A107D075B9200E012601508C
:100EA0009EA8FED7AD6E300E742774519EA8FED753
:100EB000AD6E12000900F6CF75F0F7CF76F0F55061
:100EC0009EA8FED7AD6E75C0F6FF76C0F7FF742FF3
:100ED000F1D71200EACF7CF0E9CF7BF07539F00949
:100EE000776F7727E20F786F320F7A6F75510F0B9C
:100EF000782778277A27E90F796F79277927743946
:100F00000F0B79277A2779377A377A1F7A37745116
:100F10000F0B7A277737070E766F0A0E79077A2735
:100F2000FDE378077927FDE377077827FDE3760768
:100F30007727FDE3EA6A760EE96E070E7B157B9D47
:100F4000E926000EEA22E9507A0803E1EA5201E1BB
:100F50007B8DEF50006E08E17BBD06D07BB90CD0D5
:100F60007BB702D0200E03D07B877B99300E002602
:100F700000509EA8FED7AD6EEE507BADE4D71200B8
:100F8000015072C081F0640E826FCEEC02F000C09E
:100F900072F00150300E07E173A30DD073B70BD080
:100FA00073B9200E03D0739773997381012601C022
:100FB00094F045EC02F072C081F00A0E826FCEEC24
:100FC00002F000C072F00150300E06E173B709D094
:100FD00073A107D073B9200E012601C094F045EC2F
:100FE00002F0300E722772C094F045EC02F099EFD7
:100FF00009F0576A586A59685A6A5B6A5D6A5C6A9E
:101000005A50CAEC02F09EAAFED7AECF5AF0010E9B
:10101000776F79EC02F001C058F05850FF0A0EE0EB
:10102000F50A0DE0010A17E0050A22E0010A25E0B1
:10103000030A27E0010AD8B486D0E9D0F6D0010E21
:101040005724736F816F5AC082F0CEEC02F000C05B
:1010500057F05B6AEAD05A505724FF0F736F816FC5
:101060005AC082F0CEEC02F000C057F05B6ADDD0CF
:101070005CC001F05DC002F07AD1000E016E026E1C
:1010800076D171C078F070C077F07A6B5BC079F080
:1010900003EC03F00250036E5D5C53E303E1015087
:1010A0005C5C4FE371C078F070C077F07A6B5BC026
:1010B00079F003EC03F001505C5E02505D5A040EBF
:1010C000CAEC02F071C078F070C077F07A6B5BC048
:1010D00079F003EC03F002C073F001C072F0200E4F
:1010E0009EA8FED7AD6E2D0E9EA8FED7AD6E5BC03E
:1010F00074F0010E756FA6DE200E9EA8FED7AD6EB1
:10110000EA6A650EE96E63DE2D0EF66E020EF76E6C
:10111000060E746FCFDE100EE96E73C075F072C0EC
:1011200074F0D8DE360EF66E020EF76E030E746F94
:10113000C1DE000E9EA8FED7AD6E0D0E9EA8FED796
:10114000AD6E5B6A72D071C078F070C077F07A6B68
:101150005BC079F003EC03F002C003F001505C24A3
:10116000726F02505D20736FC3084FE303E1725149
:101170004F084BE371C078F070C077F07A6B5BC0BA
:1011800079F003EC03F001505C2602505D22040E5E
:10119000CAEC02F071C078F070C077F07A6B5BC077
:1011A00079F003EC03F002C073F001C072F0200E7E
:1011B0009EA8FED7AD6E5BC074F0010E756F42DE67
:1011C000200E9EA8FED7AD6EEA6A650EE96EFFDDC1
:1011D000460EF66E020EF76E050E746F6BDE100E85
:1011E000E96E73C075F072C074F074DE4E0EF66E68
:1011F000020EF76E030E746F5DDE000E9EA8FED722
:10120000AD6E0D0E9EA8FED7AD6E5B6A0ED0585027
:1012100009080BE35B50090803E258C05BF005D0F6
:101220005B500A0DF35058245B6E3DA09FD0575081
:10123000595C40E057C059F0290E006E002EFED7D1
:101240000000010ECAEC02F05750CAEC02F0010E89
:10125000CAEC02F0EA6A5E0EE96EE9069EAAFED7C3
:10126000AECFECFF0D0EEF5CF9E1EC6A966B5E0E13
:10127000956FCEDC0150060818E1966B650E956FF0
:10128000C7DC01500A0811E1705302E171530DE00F
:10129000715127080AE303E170510F0806E3010EBC
:1012A000CAEC02F0010E016E05D0000ECAEC02F08D
:1012B000000E016E0C0E946F45EC02F0EA6A5E0EB1
:1012C000E96E21EC03F03A0E946F45EC02F0200E2B
:1012D000946F45EC02F0EA6A650EE96E21EC03F0CA
:1012E0000A0E946F45EC02F0560EF66E020EF76E83
:1012F000090E8B6F12EC03F0100EE96E71C08CF0CA
:1013000070C08BF033EC03F0620EF66E020EF76ED7
:10131000040E8B6F12EC03F0680EF66E020EF76E81
:101320000A0E8B6F12EC03F05BC072F01B0E736F32
:1013300027D60A0E946F45EC02F0760EF66E020E7A
:10134000F76E0A0E8B6F12EC03F0100EE96E5DC0A3
:101350008CF05CC08BF033EC03F0830EF66E020E63
:10136000F76E040E8B6F12EC03F03D9050D6B5EF84
:101370000CF0EACF66F0E9CF65F05FAE08D0658F7C
:1013800065A9652B5E1E5F1E5E2AD8B45F2A5F3892
:10139000F009616F6127E20F626F320F646F5F5077
:1013A0000F0B622762276427E90F636F63276327A8
:1013B0005E380F0B6327642763376437641F643715
:1013C0005E500F0B64276137070E606F0A0E6307CC
:1013D0006427FDE362076327FDE361076227FDE3FE
:1013E00060076127FDE3EA6A600EE96E070E651586
:1013F000659DED52651507E165B9EE5265B903D0FB
:10140000200E006E20D0E926000EEA22E950640882
:1014100003E1EA5201E1658DEF50006E08E165BD20
:1014200006D065B91CD065B702D0200E0BD065AFD1
:1014300006D02D0E006EED50659D659F04D065872A
:101440006599300E0026EACF5FF0E9CF5EF000C06C
:1014500094F045EC02F05FC0EAFF5EC0E9FFEE5099
:1014600065ADD4D72EEF0BF0596A5B6A5A6A5D6A94
:101470005C6A010E776F79EC02F001C059F05950A7
:10148000FF0A0DE0F50A0CE0010A0EE0070A11E080
:10149000010A12E0030A26E0010A2CE02ED03FD018
:1014A0005A2AD8B45B2A3BD05A50D8B45B065A06A5
:1014B00036D05B6A5A6A33D057505A5C5E6E5850C9
:1014C0005B585F6E7F0808E357505A5C006E5850B7
:1014D0005B58036E005002D0036A000E5C6E03C0BE
:1014E0005DF01DD05C5202E15D5203E0010E016E21
:1014F000BFD015D0000E016EBBD0595009080FE3C4
:101500005BC078F05AC077F07A6B0A0E796F03EC03
:1015100003F0595001245A6E000E02205B6E3DA06C
:10152000A6D0040ECAEC02F05C522EE15D522CE112
:10153000880EF66E020EF76E090E746FBBDC100E8D
:10154000E96E58C075F057C074F0C4DC940EF66EA6
:10155000020EF76E0D0E746FADDC100EE96E5BC0FF
:1015600075F05AC074F0B6DCA40EF66E020EF76E7B
:10157000030E746F9FDC000E9EA8FED7AD6E0D0E9D
:101580009EA8FED7AD6E2BD0AC0EF66E020EF76E97
:10159000080E746F8FDC100EE96E5BC075F05AC0D8
:1015A00074F098DCB70EF66E020EF76E0C0E746FC8
:1015B00081DC100EE96E5DC075F05CC074F08ADCF1
:1015C000C60EF66E020EF76E030E746F73DC000E1D
:1015D0009EA8FED7AD6E0D0E9EA8FED7AD6ECE0EA8
:1015E000F66E020EF76E0B0E8B6F12EC03F0100E00
:1015F000E96E58C08CF057C08BF033EC03F0DC0E72
:10160000F66E020EF76E040E8B6F12EC03F0E20E14
:10161000F66E020EF76E090E8B6F12EC03F0100ED1
:10162000E96E5BC08CF05AC08BF033EC03F0EE0E29
:10163000F66E020EF76E040E8B6F12EC03F0F40ED2
:10164000F66E020EF76E0A0E8B6F12EC03F0100EA0
:10165000E96E5DC05FF05CC05EF08BD6010EF66E89
:10166000030EF76E040E8B6F12EC03F03D9001D762
:10167000C2EF0CF0F86AD09E078EB886810EAF6E6E
:10168000000EB06EA60EAC6E900EAB6E1C683D9058
:101690003D923E6AC150C00B0F09C16E070EB46E79
:1016A00015D0020019000020001D313233413435BD
:1016B0003642373839432A3023440102030A0405ED
:1016C000060B0708090C0F000E0D0000000EF86E47
:1016D000160EF76EA20EF66E0900F550006E000AA7
:1016E00013E00900F550016EE8BE05D00F0BEA6E5D
:1016F0000900F5CFE9FF01BC090001AC0900F5CFF5
:10170000EEFF004EE9D7F9D7F86A3F6A406A426AAD
:10171000416AEFEF01F016EF02F0C00EF212F28A0A
:101720009D80C70ED56EB50ECD6E9EAA04D09EAA22
:10173000FED7AE50FAD73DA024D01E0EF66E010E95
:10174000F76E69EC02F0340EF66E010EF76E69EC7E
:1017500002F0440EF66E010EF76E69EC02F0020E16
:101760004024576E120E956F57C096F01AEC02F097
:101770003C0E946F45EC02F02D0E946F45EC02F098
:101780003D90010E776F79EC02F001C03FF03F50C1
:101790000D0803E03F500E0803E1010E40243F6EA8
:1017A0003F50FF0A0AE0F50A09E0010A0CE00A0AC4
:1017B0000FE0030AD8B4D7D020D11FD1010E4024A6
:1017C000010B406E1AD1030E4024010B406E15D15F
:1017D000C6EF03F002C003F001C0E1FF02C0E2FF68
:1017E000EA6A430EE96E140E016EE6CFEEFF012E9B
:1017F000FCD756502708D8A09DD004E155500F08BB
:10180000D8A098D043C057F044C058F045C059F014
:1018100046C05AF047C05BF048C05CF049C05DF07C
:101820004AC05EF04BC05FF04CC060F04DC061F04C
:101830004EC062F04FC063F050C064F051C065F01C
:1018400052C066F053C067F054C068F055C069F0EC
:1018500056C06AF05BEF06F001C03FF00C0E946FCB
:1018600045EC02F0040E956F020E966F1AEC02F032
:101870003F5007E0030A42E0020A47E0030A4CE057
:1018800052D0030ECAEC02F043C057F044C058F0E7
:1018900045C059F046C05AF047C05BF048C05CF004
:1018A00049C05DF04AC05EF04BC05FF04CC060F0D4
:1018B0004DC061F04EC062F04FC063F050C064F0A4
:1018C00051C065F052C066F053C067F054C068F074
:1018D00055C069F056C06AF0FAEF06F0015207E011
:1018E000560EF66E010EF76E69EC02F006D0660E2B
:1018F000F66E010EF76E69EC02F01BD0760EF66EF6
:10190000010EF76E69EC02F014D0860EF66E010E31
:10191000F76E69EC02F00DD0960EF66E010EF76EC2
:1019200069EC02F006D0A60EF66E010EF76E69ECB9
:1019300002F010D00C0E946F45EC02F0040E956F7F
:10194000020E966F1AEC02F0B60EF66E010EF76EEE
:1019500069EC02F0080E576EFA0E956F99EC01F0E3
:10196000572EFAD74AD0F9EF07F002C042F001C073
:1019700041F0415202E1425207E042C058F041C0FA
:1019800057F072D5015001D0000E3F6E0C0E946FCF
:1019900045EC02F0010E956F020E966F1AEC02F004
:1019A0003F5207E0C60EF66E010EF76E69EC02F0CC
:1019B00006D0E60EF66E010EF76E69EC02F0040E2C
:1019C000CAEC02F0F60EF66E010EF76E0E0E746F94
:1019D0005AEC07F0000E9EA8FED7AD6E0D0E9EA825
:1019E000FED7AD6E080E576EFA0E956F99EC01F0AA
:0E19F000572EFAD7050ECAEC02F09DD6030062
:020000040030CA
:0E0000003FCC3E1E0087A1000FC00FE00F4056
:00000001FF
;PIC18F4550
;CRC=DB15  CREATED="08-Sep-21 20:27"
