:1000000016EF00F0EA6A060EE96EEF500EE0010E00
:10001000016E006A002EFED7012EFBD74A0E006E3D
:10002000002EFED700D0EF2EF2D71200F86AD09E35
:10003000600ED36ED350C150C00B0F09C16E070EB6
:10004000B46EF00E936E056A0550090808E3936AD2
:1000500005C08AFF640E066ED5DF052AF5D7020EAD
:10006000055E055208E0936A05C08AFF640E066EBD
:0A007000C9DF0506F6D7E7D7030045
:020000040030CA
:0E0000003FC83E1E0087A1000FC00FE00F405A
:00000001FF
;PIC18F4550
;CRC=DC98  CREATED="04-feb.-20 20:51"
