:1000000024EF04F00C25732025730A2420253034B6
:100010006C750000EA6A580EE96EEF500DE0010EB3
:10002000016E006A002EFED7012EFBD79E0E006ED9
:10003000002EFED7EF2EF3D712005F38F00B006EC4
:100040000F0E8C1400108C6E00008C8000D08C90F1
:1000500012008350006E00380F0B016E12000F0E5D
:100060009514F009956E8C8400008C800000F1DFFF
:1000700001C05FF08C9000008C800000EADF01C0BE
:100080005EF08C900F0E9514956E5F38006EF00E3A
:10009000001600505E10016E53EF00F0959095929F
:1000A00095948C92DCD701C05EF001BEFBD78C9298
:1000B0005CB08C8200008C9400008C905D385E6E89
:1000C0000F0E5E165EC05FF0B8DF5D500F0B5E6E08
:1000D0005F6EB3DF1200280E3B6E0C0E3C6E010EFD
:1000E0003D6E060E3E6E8C908C928C940F0E951485
:1000F000956E9590959295940F0E586E8BDF010E2C
:100100003A6E3A50030808E3030E5F6E96DF050E61
:10011000586E80DF3A2AF5D7020E5F6E8EDF050E2D
:10012000586E78DF3A6A3A5003080FE3036A3A5090
:100130003B0FE96E000E0320EA6EEFCF3FF05C6AE2
:100140003FC05DF0ABDF3A2AEED738EF04F0938280
:10015000938039EF04F0080E016E00008A929392AA
:1001600000006D378A90D8B09380D8A09390938286
:1001700081A2FED7012EF1D700008A92939200004F
:10018000938000000000938281A2FED7016A0000E4
:1001900081B001808A9293928A909390120093800A
:1001A0000000938200008A90939000008A929392BC
:1001B000A00E6D6FD0DF01506C9101B06C819390F7
:1001C0000000938281A2FED7000000D0000093803F
:1001D0000000000E6CA1010E016E1200080E6A6F85
:1001E00000C06BF093800000938281A2FED781B0A3
:1001F000D88081A0D8900136000093928A926A2F0D
:10020000F1D7938000008A906B51D8A4939000009E
:10021000938281A2FED700008A92939200008A9076
:1002200093905FEF01F0BBDF0152FDE0938000008F
:10023000938200008A90939000008A929392673193
:10024000036E6631026E033202320332023203322F
:100250000232033202320332023203320232010E20
:1002600003160250A009FE0B696F6D6F74DF66C044
:100270006DF071DF938000009382000081A2FED7B1
:100280008A90939000008A9293926731036E663150
:10029000026E03320232033202320332023203327E
:1002A00002320332023203320232010E03160250CE
:1002B000A0090109696F6D6F4EDF006A8FD701C019
:1002C00068F093900000938281A2FED7000000D0D6
:1002D00000009380000068C001F0120060DF01524E
:1002E000FDE093800000938200008A9093900000CC
:1002F0008A9293926A31036E6931026E033202323E
:100300000332023203320232033202320332023249
:1003100003320232010E03160250A009FE0B6C6F6D
:100320006D6F19DF69C06DF016DF6BC06DF013DF04
:1003300093900000938281A2FED7000000D00000BD
:10034000938000001200676B666B6DDF01C064F084
:10035000656B6551060818E3010E6525666F6451EB
:10036000140DF3506627036A6551500FE96E000EB5
:100370000320EA6EEFCF67F06A6B66C069F067C072
:100380006BF0ACDF652BE5D7656B65510A0818E3A8
:10039000080E6525666F6451140DF3506627036AD5
:1003A0006551570FE96E000E0320EA6EEFCF67F03C
:1003B0006A6B66C069F067C06BF090DF652BE5D7AC
:1003C0006451140DF350130F666F63C067F0686BD0
:1003D0006A6B696F63C06BF081DF6451140DF35079
:1003E000140F666F6A6B696F62C06BF077DF010E86
:1003F0006425666F6A6B696B6B6F70DF010E016E4F
:1004000012006A6B696B6B6B69DF4F6A4F500908AA
:10041000D8A08FD04E6A4E5006081CE3036A4E5097
:100420003A0FE96E000E0320EA6E010E4E24526E62
:100430004F50140DF3505226F2CF53F0F29E52C09B
:10044000A9FFA69CA69EA680A85053BEF28EEF6E72
:100450004E2AE1D74E6A4E500A081CE3036A4E50FA
:10046000410FE96E000E0320EA6E080E4E24526E14
:100470004F50140DF3505226F2CF53F0F29E52C05B
:10048000A9FFA69CA69EA680A85053BEF28EEF6E32
:100490004E2AE1D74F50140DF350130F506EF2CF88
:1004A00051F0F29E50C0A9FFA69CA69EA680A8501F
:1004B00051BEF28E506A4F50140DF350140F526E0D
:1004C000F2CF53F0F29E52C0A9FFA69CA69EA68032
:1004D000A85053BEF28E50244C6E4D6A3AC050F074
:1004E0003BC051F03CC052F03DC053F03EC054F010
:1004F0003FC055F040C056F041C057F042C058F0E0
:1005000043C059F044C05AF045C05BF046C05CF0AF
:1005100047C05DF048C05EF049C05FF04AC060F07F
:100520004BC061F04CC062F04DC063F00CDF4F2A4D
:100530006DD745EF04F0566A565006081DE3036A6E
:100540005650420F016E000E032201C057F003C047
:1005500058F0010E5624596E4150140DF35059268F
:10056000676B59C066F05FDE58C0EAFF57C0E9FF0D
:1005700001C0EFFF562AE0D7566A56500A081DE31D
:10058000036A5650490F016E000E032201C057F056
:1005900003C058F0080E5624596E4150140DF35004
:1005A0005926676B59C066F03EDE58C0EAFF57C057
:1005B000E9FF01C0EFFF562AE0D74150140DF35078
:1005C000130F576E676B666F2EDE576A4150140D1E
:1005D000F350140F586E676B666F25DE0150572479
:1005E000546E556A420E016E026A12009EA8FED732
:1005F000AD6E1200EF5210E0EACF51F0E9CF50F0AB
:10060000EF509EA8FED7AD6E51C0EAFF50C0E9FF83
:10061000E92AD8B4EA2AEED712009EAAFED7AE5035
:100620004DC04EF04F6AEA6A3A0EE96EE3DF000E03
:100630009EA8FED7AD6EEA6A410EE96EDBDF000EC2
:100640009EA8FED7AD6E4C509EA8FED7AD6E4E5004
:100650009EA8FED7AD6E0D0E9EA8FED7AD6E9EAACB
:10066000FED7AECF01F0AAEF05F04FC051F04EC05B
:1006700050F051C003F050C0E9FF51C0EAFFEF5203
:1006800004E0502AD8B4512AF4D74E50505C006E82
:100690004F505158036E00C001F01200592C01D088
:1006A00003D0400E5A6E01D05A6A010E585C5A2689
:1006B0005A5080095B6E5C6A5D6EF0DC1200575028
:1006C000070A07E00B0A0AE0060A10E0020A14E033
:1006D00018D0010E586E596EE1DF18D05C6A010E19
:1006E0005D6EDCDC020E586E95DC10D0010E586E8B
:1006F000020E596ED3DF0AD05C6A100E5D6ECEDC3E
:1007000005D0010E5C6E57C05DF0C8DC1200EF52E0
:100710000FE0EACF4FF0E9CF4EF0EFCF57F0CFDF49
:100720004FC0EAFF4EC0E9FFE92AD8B4EA2AEFD762
:1007300012000900F6CF4FF0F7CF50F0F5CF57F089
:10074000BEDF4FC0F6FF50C0F7FF4E2EF2D71CEFB2
:1007500004F0EACF56F0E9CF55F04F38F009516E6A
:100760005126E20F526E320F546E4F500F0B52262D
:1007700052265426E90F536E532653264E380F0B3C
:100780005326542653365436541E54364E500F0BAF
:1007900054265136070E506E0A0E53065426FDE3BA
:1007A00052065326FDE351065226FDE3500651261C
:1007B000FDE3EA6A500EE96E070E5514559CE926D2
:1007C000000EEA22E950540803E1EA5201E1558C97
:1007D000EF50006E08E155BC06D055B813D055B6A1
:1007E00002D0200E03D055865598300E0026EACF51
:1007F0004FF0E9CF4EF000C057F061DF4FC0EAFF85
:100800004EC0E9FFEE5055ACDDD723EF04F00C0EDF
:10081000576E55DFEA6A3A0EE96E79DF200E576EA1
:100820004EDFEA6A410EE96E72DF0A0EF66E000EC6
:10083000F76E030E4E6E7DD7090EE96E4DC04FF078
:100840004CC04EF086D71200F86AD09EB886810E52
:10085000AF6E000EB06EA60EAC6E900EAB6EC150B9
:10086000C00B0F09C16E070EB46E046A056A33D45B
:100870006ED49EAA04D09EAAFED7AE50FAD7676B5C
:10088000666BD1DC013C01D0BCD5416A54DE02C0AC
:1008900003F001C0E1FF02C0E2FFEA6A060EE96E62
:1008A000140E016EE6CFEEFF012EFCD79EAA52D1A8
:1008B0009EAAFED7AE500EE0010A14E0030A52E0F1
:1008C000010AD8B4ABD0070AD8B42DD1010AD8B4E4
:1008D0003ED140D1676B666BA6DC01C03AF03A505E
:1008E00085DE38D19EAAFED7AECF3AF03AC041F0AD
:1008F00022DE02C003F001C0E1FF02C0E2FFEA6AAB
:10090000060EE96E140E016EE6CFEEFF012EFCD747
:1009100006C03AF007C03BF008C03CF009C03DF00B
:100920000AC03EF00BC03FF00CC040F00DC041F0DB
:100930000EC042F00FC043F010C044F011C045F0AB
:1009400012C046F013C047F014C048F015C049F07B
:1009500016C04AF017C04BF018C04CF019C04DF04B
:100960005CD6F8D0010E42DEEA6A060EE96EE906B0
:100970009EAAFED7AECFECFF0D0EEF5CF9E1EC6A5C
:100980004F6A060E4E6E71DE0150060817E14F6A7F
:100990000D0E4E6E6ADE01500A0810E1185202E197
:1009A00019520CE01950270809E303E118500F0809
:1009B00005E3010E1BDE010E016E04D0000E16DEF3
:1009C000000E016E015229E006C03AF007C03BF06C
:1009D00008C03CF009C03DF00AC03EF00BC03FF03B
:1009E0000CC040F00DC041F00EC042F00FC043F00B
:1009F00010C044F011C045F012C046F013C047F0DB
:100A000014C048F015C049F016C04AF017C04BF0AA
:100A100018C04CF019C04DF0FADE9CD0010EE6DD96
:100A2000EA6A060EE96EE9069EAAFED7AECFECFF93
:100A30000D0EEF5CF9E1EC6A4F6A060E4E6E15DEA4
:100A40000150060817E14F6A0D0E4E6E0EDE015082
:100A50000A0810E1185202E119520CE01950270857
:100A600009E303E118500F0805E3010EBFDD010E95
:100A7000016E04D0000EBADD000E016E015252E08C
:100A800006C050F007C051F008C052F009C053F042
:100A90000AC054F00BC055F00CC056F00DC057F012
:100AA0000EC058F00FC059F010C05AF011C05BF0E2
:100AB00012C05CF013C05DF014C05EF015C05FF0B2
:100AC00016C060F017C061F018C062F019C063F082
:100AD0003ADC06C03AF007C03BF008C03CF009C061
:100AE0003DF00AC03EF00BC03FF00CC040F00DC01E
:100AF00041F00EC042F00FC043F010C044F011C0EE
:100B000045F012C046F013C047F014C048F015C0BD
:100B100049F016C04AF017C04BF018C04CF019C08D
:100B20004DF075DE17D0EA6A1A0EE96EE9069EAA44
:100B3000FED7AECFECFF0D0EEF5CF9E1EC6A0C0EC8
:100B4000576EBDDDEA6A1A0EE96EE1DD03D00C0EC8
:080B5000576EB5DDABD60300C2
:0200000400F00A
:100000000A303030303030004150504C45202020F4
:100010002020000026303030303031004F52414E29
:10002000474520202020000013303030303032008F
:100030004C454D4F4E202020202000002A303030EB
:100040003030330053545241574245525259000008
:100050003B303030303034005241535042455252E0
:10006000592000001D303030303035004D414E47B2
:100070004F2020202020000020303030303036004B
:1000800042414E414E4120202020000013303030AC
:100090003030370057415445524D454C4F4E0000CB
:1000A0000F303030303038004D454C4F4E2020203E
:1000B000202000001A3030303030390041564F4394
:0900C00041444F202020000045BE
:020000040030CA
:0E0000003FCC3E1E0087A1000FC00FE00F4056
:00000001FF
;PIC18F4550
;CRC=E6A8  CREATED="06-Sep-21 16:26"
