:04000000DBEF03F03F
:08000800046ED8CF05F0E0CF33
:1000100006F00001E9CF0CF0EACF07F0E1CF08F0DD
:10002000E2CF09F0D9CF0AF0DACF0BF0F3CF12F01C
:10003000F4CF13F0FACF14F0F5CF15F0F6CF16F099
:10004000F7CF17F000C00EF001C00FF002C010F0A3
:1000500003C011F0F2AA30EF00F0F2B441EF01F06A
:100060000EC000F00FC001F010C002F011C003F08C
:100070000CC0E9FF07C0EAFF078E08C0E1FF09C016
:10008000E2FF0AC0D9FF0BC0DAFF12C0F3FF13C0B2
:10009000F4FF14C0FAFF15C0F5FF16C0F6FF17C035
:1000A000F7FF045006C0E0FF05C0D8FF1000F76A54
:1000B000BE0FF66E000EF7220900F5501200446FD5
:1000C0006D00F76AD20FF66E000EF7220900F550A8
:1000D00012004C756E00F76AE60FF66E000EF722FE
:1000E0000900F55012004D617200F76AFA0FF66EC2
:1000F000000EF7220900F55012004D696500F76AFD
:100100000E0FF66E010EF7220900F55012004A7527
:100110006500F76A220FF66E010EF7220900F5500E
:10012000120056696500F76A360FF66E010EF72267
:100130000900F550120053616200F76A4A0FF66E2B
:10014000010EF7220900F550120020202000F76A66
:100150005E0FF66E010EF7220900F5501200456E93
:100160006500F76A720FF66E010EF7220900F5506E
:10017000120046656200F76A860FF66E010EF722DE
:100180000900F550120041627200F76A9A0FF66E8C
:10019000010EF7220900F55012004D617900F76A4F
:1001A000AE0FF66E010EF7220900F55012004A75E7
:1001B0006E00F76AC20FF66E010EF7220900F550C5
:1001C00012004A756C00F76AD60FF66E010EF72220
:1001D0000900F550120041676F00F76AEA0FF66EEA
:1001E000010EF7220900F550120053657000F76AFE
:1001F000FE0FF66E010EF7220900F55012004F6354
:100200007400F76A120FF66E020EF7220900F5501D
:1002100012004E6F7600F76A260FF66E020EF72276
:100220000900F550120044696300F76A3A0FF66E50
:10023000020EF7220900F5501200280C0106016A8F
:10024000026A006A036A765102E1755118E0100EE5
:10025000776FD89073377437003603367651035C66
:1002600002E17551005C07E37551005ED8A00306FA
:100270007651035ED88001360236772FEAD74DEFEC
:1002800001F03B2AD8B43C2A3CC074F03BC073F068
:100290003EC076F03DC075F0D2D700C03BF003C041
:1002A0003CF0D76ADC0ED66EF294F29430EF00F098
:1002B00020202000253373202530327520646520EE
:1002C0002533732064652025303275200000416C91
:1002D00061726D613A20253032753A253032753AB7
:1002E000253032752000EA6A680EE96EEF500DE0A5
:1002F000010E016E006A002EFED7012EFBD79E0E66
:10030000006E002EFED7EF2EF3D712006E39F00BE1
:10031000006E0F0E81140010816E0000818000D0ED
:1003200081901200F00E936E8184000081800000A5
:1003300081380F0B6E6F8190000081800000813842
:100340000F0B6D6F8190000E936E6E39006EF00E84
:10035000001600506D11016EB0EF01F08192E2D7EE
:1003600001C06DF001BEFBD76BA181926BB18182A0
:1003700000008194000081906C396D6F0F0E6D1735
:100380006DC06EF0C3DF6C510F0B6D6F6E6FBEDF13
:100390001200000E936E8192819481900F0E686F0F
:1003A000A2DF010E586E5850030808E3030E6E6F6B
:1003B000ADDF050E686F97DF582AF5D7020E6E6F16
:1003C000A5DF586A5850030809E3036A58502DDF27
:1003D000596E6B6B6C6FC2DF582AF4D72BEF04F0A9
:1003E0000F0E956E2CEF04F0F80E926E2DEF04F0C8
:1003F000926A896A120059685A6A5A50030834E3AB
:10040000F70E006E5A50016E04E0D8900032012EB3
:10041000FCD700500038F00B006E0F0E8314001054
:10042000836E5B6A5B5003081DE383500F0B5C6EA9
:10043000F70E006E5B50016E04E0D8900032012E82
:10044000FCD700505C5C0CE15A50040DF3505B2467
:10045000036A1B0FE96E000E0320EA6EEFCF59F01E
:100460005B2AE0D75A2AC9D7585209E059501A5C7A
:1004700006E059C01AF059C001F00DD008D0593C1F
:1004800006D01AC059F01A6859C001F004D059C0FA
:100490001AF0FF0E016E35EF04F0010E695DFC0FDE
:1004A0000EE2040F67EF02F0800E6A6F08D0C00EF4
:1004B0006A6F05D0940E6A6F02D0D40E6A6F010E77
:1004C000685D6A276B6B6AC06CF048DF1200E82435
:1004D000F76AF736E90FF66E040EF7220A00F550B8
:1004E000FA6E0800F550F96EA804AE04B404BA041C
:1004F00067510C0A05E0060A0DE0020A12E016D068
:100500006B6B010E6C6F2ADF010E196E020E686FA5
:10051000EADE11D0192A010E686F19C069F0BDDF3B
:100520000AD06B6B100E6C6F19DF05D0010E6B6F6C
:1005300067C06CF013DF12000900F5520CE0F6CF33
:1005400058F0F7CF59F0F5CF67F0D2DF58C0F6FF7B
:1005500059C0F7FFF1D750EF04F0EF520FE0EACFA8
:1005600065F0E9CF64F0EFCF67F0C2DF65C0EAFF66
:1005700064C0E9FFE92AD8B4EA2AEFD7120068512B
:10058000016A675D03E267C000F00CD0006A080EE4
:10059000696F673700366851005CD8B0006E01366D
:1005A000692FF7D71200015064C067F0640E686FBE
:1005B000E6DF00C064F00150300E07E165A30CD007
:1005C00065B70AD065B9200E03D065976599658136
:1005D000012601C067F08CDF64C067F00A0E686F07
:1005E000CEDF00C064F00150300E06E165B708D0E0
:1005F00065A106D065B9200E012601C067F078DF3D
:10060000300E642764C067F073DF12000900F6CF74
:1006100065F0F7CF66F0F5CF67F06ADF65C0F6FFEB
:1006200066C0F7FF642FF2D71200010E686F696F82
:1006300034DFEA6A5C0EE96E90DF200E676F58DFE8
:1006400059C064F0010E656FAEDFBC0EF66E020E8F
:10065000F76E040E646FDADFEA6A600EE96E7DDF22
:10066000C30EF66E020EF76E040E646FCFDF5BC032
:1006700064F0010E656F97DF200E676F39DF6AEF58
:1006800004F0010E686F020E696F07DF58C064F056
:10069000010E656F88DF3A0E676F2ADF59C064F07C
:1006A000010E656F80DF3A0E676F22DF5AC064F07B
:1006B000010E656F78DF200E676F1ADF1200010EE2
:1006C000686F040E696FE9DECE0EF66E020EF76EED
:1006D000080E646F9BDF58C064F0010E656F63DF26
:1006E0003A0E676F05DF59C064F0010E656F5BDF7E
:1006F0003A0E676FFDDE5AC064F0010E656F53DF7E
:10070000200E676FF5DE78EF04F09EA8FED7AD6E81
:10071000120058509EA8FED7AD6E59509EA8FED725
:10072000AD6E5A509EA8FED7AD6E5B509EA8FED708
:10073000AD6E9EAAFED7AECF01F0D1EF07F05A50B2
:100740009EA8FED7AD6E59509EA8FED7AD6E5850EC
:100750009EA8FED7AD6E9EAAFED7AECF01F01200C6
:100760005B50585C09E058505B5C02E2010E01D01E
:10077000FF0E016E1AD017D05C50595C09E0595039
:100780005C5C02E2010E01D0FF0E016E0ED00BD0B8
:100790005D505A5C08E05A505D5C02E2010E01D0E7
:1007A000FF0E016E02D0000E016E1200926A58C058
:1007B00089FF24EF08F0F86AD09E078EB886810E74
:1007C000AF6E000EB06EA60EAC6E900EAB6E1A68D9
:1007D0003C6A3B6A3E6A640E3D6E3F6AC150C00B84
:1007E0000F09C16E070EB46E12D020001B313233D8
:1007F0004134353642373839432A30234401020325
:100800000A0405060B0708090C0F000E0D00000E68
:10081000F86E070EF76EEA0EF66E0900F550006EE0
:10082000000A13E00900F550016EE8BE05D00F0B79
:10083000EA6E0900F5CFE9FF01BC090001AC09002F
:10084000F5CFEEFF004EE9D7F9D7F86A556A1E0ECC
:10085000566E576A9ED5C4D5C7D5CADDE00EF212D2
:10086000C70ED56E010E586EC6D501C03FF0D890A8
:100870003E30596E3D30586E0A0E585C006E000EC8
:100880005958036E00C001F003503C5C0AE303E1D9
:1008900001503B5C06E3B00EF66E020EF76E4CD6CE
:1008A00027D040C058F041C059F042C05AF043C070
:1008B0005BF044C05CF045C05DF046C05EF047C0F0
:1008C0005FF048C060F049C061F04AC062F04BC0C0
:1008D00063F0ABD654C05AF053C059F052C058F030
:1008E000D0DE4EC05AF04DC059F04CC058F0E7D69B
:1008F000575004084BE0572C01D014D0000E05DFF0
:100900009EAAFED7AECF40F09EAAFED7AECF41F052
:100910009EAAFED7AECF42F09EAAFED7AECF43F03E
:10092000000EF3DE5750020817E0010EEEDE9EAA1D
:10093000FED7AECF54F09EAAFED7AECF53F09EAAFC
:10094000FED7AECF52F0000EE0DE54C05AF053C0D6
:1009500059F052C058F095DE5750030817E0020EC8
:10096000D4DE9EAAFED7AECF4EF09EAAFED7AECF63
:100970004DF09EAAFED7AECF4CF0000EC6DE4CC0A6
:100980004FF04DC050F056504E24516E3F3C01D0B8
:1009900001D0556A3F50440A09E0070A0AE0020AFA
:1009A0000BE0620A0CE0090A0DE00DD0010E576E53
:1009B0000AD0020E576E07D0030E576E04D0040EF5
:1009C000576E01D0576A5750010A0BE0030AD8B49A
:1009D000DFD1010AD8B452D2070AD8B4C5D2EAEF9F
:1009E00007F055500AE0010AD8B49CD0030AD8B4E5
:1009F000BDD0010AD8B4A1D1C2D1010E686F696F10
:100A00004CDD3F50320A07E0060A07E0020A07E021
:100A10000E0A07E007D0402A05D0550603D0552A14
:100A200001D04006070E4024596E676F070E686FAD
:100A3000A6DD00C040F040500DE0010A18E0030AB6
:100A400023E0010A2EE0070A39E0010A44E0030A24
:100A50004FE05BD0EA6A440EE96E000E57EC00F0FE
:100A60000A000900F550EE6E0009FBE15AD0EA6A6F
:100A7000440EE96E000E61EC00F00A000900F5502A
:100A8000EE6E0009FBE14DD0EA6A440EE96E000EFD
:100A90006BEC00F00A000900F550EE6E0009FBE176
:100AA00040D0EA6A440EE96E000E75EC00F00A00D0
:100AB0000900F550EE6E0009FBE133D0EA6A440EFE
:100AC000E96E000E7FEC00F00A000900F550EE6EB2
:100AD0000009FBE126D0EA6A440EE96E000E89ECBB
:100AE00000F00A000900F550EE6E0009FBE119D094
:100AF000EA6A440EE96E000E93EC00F00A00090069
:100B0000F550EE6E0009FBE10CD0EA6A440EE96E86
:100B1000000E9DEC00F00A000900F550EE6E000991
:100B2000FBE131D1040E686F010E696FB6DC3F50F6
:100B3000320A07E0060A07E0020A07E00E0A07E0A9
:100B400007D0412A05D0550603D0552A01D04106C9
:100B50001F0E4124596E676F1F0E686F10DD00C0B5
:100B600041F0415202E11F0E416E0DD10B0E686F34
:100B7000010E696F92DC3F50320A07E0060A07E077
:100B8000020A07E00E0A07E007D0422A05D0550600
:100B900003D0552A01D042060C0E4224596E676FCD
:100BA0000C0E686FECDC00C042F04250010A1CE001
:100BB000030A27E0010A32E0070A3DE0010A48E0A3
:100BC000030A53E0010A5EE00F0AD8B468D0010AB4
:100BD000D8B472D0030AD8B47CD0010AD8B486D075
:100BE000070AD8B490D09CD0EA6A480EE96E000E8D
:100BF000A7EC00F00A000900F550EE6E0009FBE1D9
:100C00009BD0EA6A480EE96E000EB1EC00F00A00D3
:100C10000900F550EE6E0009FBE18ED0EA6A480E3D
:100C2000E96E000E6BEC00F00A000900F550EE6E64
:100C30000009FBE181D0EA6A480EE96E000EBBECC8
:100C400000F00A000900F550EE6E0009FBE174D0D7
:100C5000EA6A480EE96E000EC5EC00F00A000900D1
:100C6000F550EE6E0009FBE167D0EA6A480EE96EC6
:100C7000000ECFEC00F00A000900F550EE6E0009FE
:100C8000FBE15AD0EA6A480EE96E000ED9EC00F09A
:100C90000A000900F550EE6E0009FBE14DD0EA6A4A
:100CA000480EE96E000EE3EC00F00A000900F55072
:100CB000EE6E0009FBE140D0EA6A480EE96E000ED4
:100CC000EDEC00F00A000900F550EE6E0009FBE1C2
:100CD00033D0EA6A480EE96E000EF7EC00F00A0025
:100CE0000900F550EE6E0009FBE126D0EA6A480ED5
:100CF000E96E000E01EC01F00A000900F550EE6EFD
:100D00000009FBE119D0EA6A480EE96E000E0BEC0F
:100D100001F00A000900F550EE6E0009FBE10CD06D
:100D2000EA6A480EE96E000E9DEC00F00A00090028
:100D3000F550EE6E0009FBE126D0120E686F010E31
:100D4000696F4DEC02F03F50320A07E0060A07E0F7
:100D5000020A07E00E0A07E007D0432A05D055062D
:100D600003D0552A01D04306640E4324596E676FA1
:100D7000640E686FBFEC02F000C043F004D0556A07
:100D8000040E016E02D0010E016E01C057F029D190
:100D9000555005E0010A25E0030A45E066D0010E42
:100DA000686F020E696F4DEC02F03F50320A07E0A7
:100DB000060A07E0020A07E00E0A07E007D0522AF7
:100DC00005D0550603D0552A01D05206180E5224DC
:100DD000596E676F180E686FBFEC02F000C052F0DA
:100DE00048D0040E686F020E696F4DEC02F03F5060
:100DF000320A07E0060A07E0020A07E00E0A07E0E7
:100E000007D0532A05D0550603D0552A01D05306E2
:100E10003C0E5324596E676F3C0E686FBFEC02F0B6
:100E200000C053F026D0070E686F020E696F4DECBC
:100E300002F03F50320A07E0060A07E0020A07E024
:100E40000E0A07E007D0542A05D0550603D0552ACC
:100E500001D054063C0E5424596E676F3C0E686FE7
:100E6000BFEC02F000C054F004D0556A040E016ECD
:100E700002D0020E016E01C057F0B3D0555005E00C
:100E8000010A25E0030A45E066D0090E686F040EEA
:100E9000696F4DEC02F03F50320A07E0060A07E0A6
:100EA000020A07E00E0A07E007D04C2A05D05506D3
:100EB00003D0552A01D04C06180E4C24596E676F8A
:100EC000180E686FBFEC02F000C04CF048D00C0E5A
:100ED000686F040E696F4DEC02F03F50320A07E074
:100EE000060A07E0020A07E00E0A07E007D04D2ACB
:100EF00005D0550603D0552A01D04D063C0E4D2491
:100F0000596E676F3C0E686FBFEC02F000C04DF089
:100F100026D00F0E686F040E696F4DEC02F03F5043
:100F2000320A07E0060A07E0020A07E00E0A07E0B5
:100F300007D04E2A05D0550603D0552A01D04E06BB
:100F40003C0E4E24596E676F3C0E686FBFEC02F08A
:100F500000C04EF004D0556A040E016E02D0030E9C
:100F6000016E01C057F03DD0030E85EC03F040C088
:100F700058F041C059F042C05AF043C05BF044C041
:100F80005CF045C05DF046C05EF047C05FF048C011
:100F900060F049C061F04AC062F04BC063F089EF75
:100FA00003F0040E85EC03F054C05AF053C059F01E
:100FB00052C058F09FEC03F0050E85EC03F04EC0D4
:100FC0005AF04DC059F04CC058F09FEC03F0060E9B
:100FD00085EC03F0576A010E686F030E696F4DECE4
:100FE00002F0575235E14EC05AF04DC059F04CC096
:100FF00058F054C05DF053C05CF052C05BF0B0ECF0
:1010000003F001BE25D051C05AF050C059F04FC076
:1010100058F054C05DF053C05CF052C05BF0B0ECCF
:1010200003F001AE15D0D8903E30036E3D30026E15
:10103000016E3C50035C09E303E13B50015C05E3B6
:10104000070E586ED6EF03F002D0F8EC01F002D094
:0A105000F8EC01F032EF04F00300A9
:020000040030CA
:0E0000003FCC3E1E0087A1000FC00FE00F4056
:00000001FF
;PIC18F4550
;CRC=7F90  CREATED="02-Sep-21 11:29"
