:040000007BEF02F0A0
:08000800046ED8CF05F0E0CF33
:1000100006F00001E9CF0CF0EACF07F0E1CF08F0DD
:10002000E2CF09F0D9CF0AF0DACF0BF0F3CF12F01C
:10003000F4CF13F0FACF14F0F5CF15F0F6CF16F099
:10004000F7CF17F000C00EF001C00FF002C010F0A3
:1000500003C011F0F2AA30EF00F0F2B48AEF00F022
:100060000EC000F00FC001F010C002F011C003F08C
:100070000CC0E9FF07C0EAFF078E08C0E1FF09C016
:10008000E2FF0AC0D9FF0BC0DAFF12C0F3FF13C0B2
:10009000F4FF14C0FAFF15C0F5FF16C0F6FF17C035
:1000A000F7FF045006C0E0FF05C0D8FF1000F76A54
:1000B000BE0FF66E000EF7220900F5501200280C54
:1000C0000106016A026A006A036A375002E136508B
:1000D00018E0100E386ED8903436353600360336B8
:1000E0003750035C02E13650005C07E33650005E97
:1000F000D8A003063750035ED88001360236382E6A
:10010000EAD71200926A34C089FF1200926A896AA3
:10011000E4EF00F01B2AD8B41C2A1CC035F01BC029
:1001200034F0170E376E700E366ECBDF00C034F031
:1001300003C035F034520DE135520BE1010E346E3F
:10014000E1DF1C6A1B6A1D2A1D503C0801E11D6A83
:100150003BD01CC035F01BC034F0030E376EE80EE8
:10016000366EAFDF00C034F003C035F0345206E124
:10017000355204E1040E346EC5DF26D01CC035F0C4
:100180001BC034F0376A640E366E9BDF00C034F05B
:1001900003C035F0345206E1355204E1020E346EEC
:1001A000B1DF12D01CC035F01BC034F0376A640ECA
:1001B000366E87DF00C034F003C035F000501E08F3
:1001C00003E1355201E1A2D7D76ACE0ED66EF29482
:1001D000F29430EF00F0436F6E743A2025327520B0
:1001E0006D2025326C752E25326C75207300EA6AFD
:1001F0002C0EE96EEF500DE0010E016E006A002E2C
:10020000FED7012EFBD79E0E006E002EFED7EF2EDE
:10021000F3D712003238F00B006E0F0E811400106D
:10022000816E0000818000D081901200F00E936EEC
:10023000818400008180000081380F0B326E819034
:1002400000008180000081380F0B316E8190000E1C
:10025000936E3238006EF00E001600503110016EB1
:1002600034EF01F08192E2D701C031F001BEFBD73B
:100270002FA081922FB08182000081940000819094
:100280003038316E0F0E311631C032F0C3DF3050CE
:100290000F0B316E326EBEDF1200000E936E819234
:1002A000819481900F0E2C6EA2DF010E1E6E1E50E7
:1002B000030808E3030E326EADDF050E2C6E97DFE8
:1002C0001E2AF5D7020E326EA5DF1E6A1E500308E5
:1002D00009E3036A1E50EBDE1F6E2F6A306EC2DF29
:1002E0001E2AF4D788EF02F0F80E926E89EF02F022
:1002F000010E2D5CFC0F0EE2040F92EF01F0800E58
:100300002E6E08D0C00E2E6E05D0940E2E6E02D02A
:10031000D40E2E6E010E2C5C2E262F6A2EC030F0CD
:10032000A1DF1200E824F76AF7363F0FF66E030EDE
:10033000F7220A00F550FA6E0800F550F96EFE0239
:1003400004030A0310032B500C0A05E0060A0DE013
:10035000020A12E016D02F6A010E306E83DF010E02
:100360001A6E020E2C6E43DF11D01A2A010E2C6E6B
:100370001AC02DF0BDDF0AD02F6A100E306E72DF6A
:1003800005D0010E2F6E2BC030F06CDF120009007B
:10039000F6CF23F0F7CF24F0F5CF2BF0D4DF23C036
:1003A000F6FF24C0F7FF222EF2D712002550016A73
:1003B000245C03E224C000F00CD0006A080E266E14
:1003C000243600362550005CD8B0006E0136262E4B
:1003D000F7D71200015022C024F0640E256EE6DF2C
:1003E00000C022F00150300E07E123A20CD023B64A
:1003F0000AD023B8200E03D0239623982380012609
:1004000001C02BF0A0DF22C024F00A0E256ECEDF43
:1004100000C022F00150300E06E123B608D023A020
:1004200006D023B8200E012601C02BF08CDF300E41
:10043000222622C02BF087DFC1EF02F0EACF2AF09C
:10044000E9CF29F02338F009256E2526E20F266E24
:10045000320F286E23500F0B262626262826E90F5A
:10046000276E2726272622380F0B272628262736F1
:100470002836281E283622500F0B28262536070E30
:10048000246E0A0E27062826FDE326062726FDE30E
:1004900025062626FDE324062526FDE3EA6A240E2A
:1004A000E96E070E2914299CE926000EEA22E9507C
:1004B000280803E1EA5201E1298CEF50006E08E1BF
:1004C00029BC06D029B813D029B602D0200E03D0FB
:1004D00029862998300E0026EACF23F0E9CF22F0B2
:1004E00000C02BF030DF23C0EAFF22C0E9FFEE504E
:1004F00029ACDDD71200F86AD09E078E1C6A1B6AF1
:100500001D6AC150C00B0F09C16E070EB46EC5D66F
:10051000EBD6E00EF212C70ED56E020E2C6E2D6ECB
:10052000E7DE196AF2BE198EF29E1CC035F01BC0C0
:1005300034F0376A640E366EC4DD19BEF28E02C026
:100540001FF001C01EF0196AF2BE198EF29E1CC087
:1005500035F01BC034F0376A640E366EB2DD19BE5A
:10056000F28E00C020F003C021F0D60EF66E010E10
:10057000F76E060E226E0BDF1DC022F0110E236EE9
:1005800029D7DF0EF66E010EF76E030E226EFFDE28
:10059000030EE96E1FC023F01EC022F04FDF2E0EA7
:1005A0002B6ED1DE030EE96E21C023F020C022F0B5
:1005B00045DF200E2B6EC7DE730E2B6EC4DEADD76B
:0205C000030036
:020000040030CA
:0E0000003FCC3E1E0087A1000FC00FE00F4056
:00000001FF
;PIC18F4550
;CRC=CCF3  CREATED="02-Sep-21 09:30"
