:100000002BEF03F0F76A140FF66E000EF7220900CB
:10001000F5501200446F6D00F76A280FF66E000E5F
:10002000F7220900F55012004C756E00F76A3C0F7C
:10003000F66E000EF7220900F55012004D617200B5
:10004000F76A500FF66E000EF7220900F550120005
:100050004D696500F76A640FF66E000EF72209001D
:10006000F55012004A756500F76A780FF66E000EBB
:10007000F7220900F550120056696500F76A8C0FE7
:10008000F66E000EF7220900F5501200536162006F
:10009000F76AA00FF66E000EF7220900F550120065
:1000A00020202000F76AB40FF66E000EF722090038
:1000B000F5501200456E6500F76AC80FF66E000E27
:1000C000F7220900F550120046656200F76ADC0F5E
:1000D000F66E000EF7220900F55012004162720020
:1000E000F76AF00FF66E000EF7220900F5501200C5
:1000F0004D617900F76A040FF66E010EF7220900D0
:10010000F55012004A756E00F76A180FF66E010E70
:10011000F7220900F55012004A756C00F76A2C0F9F
:10012000F66E010EF7220900F550120041676F00CC
:10013000F76A400FF66E010EF7220900F550120023
:1001400053657000F76A540FF66E010EF72209002E
:10015000F55012004F637400F76A680FF66E010ED7
:10016000F7220900F55012004E6F7600F76A7C0FF7
:10017000F66E010EF7220900F55012004469630083
:10018000080E016E00008A929392000027368A9032
:10019000D8B09380D8A09390938281A2FED7012EED
:1001A000F1D700008A929392000093800000000033
:1001B000938281A2FED7016A000081B001808A92F9
:1001C00093928A9093901200080E246E00C025F03E
:1001D00093800000938281A2FED781B0D88081A055
:1001E000D8900136000093928A92242EF1D7938002
:1001F00000008A902550D8A493900000938281A299
:10020000FED700008A92939200008A909390120089
:1002100024C025F0D8902532780E25162530006EA2
:1002200000323F0E001600502524266E24500F0B7E
:100230002624016E120026C027F0286A27520CE0FF
:100240002750090805E20A0E275E100E282603D063
:1002500027502826276AF2D728C001F01200176A13
:1002600093800000938200008A90939000008A920D
:100270009392D00E276E84DF276A82DF938000007E
:100280009382000081A2FED78A90939000008A9208
:100290009392D10E276E74DF006A96DF01C018F0CA
:1002A00001C024F0B5DF01C017F0939000009382E5
:1002B00081A2FED7000000D00000938000001750FC
:1002C0007F0B186E266EB7DF01C017F000D000005C
:1002D00093800000938200008A90939000008A929D
:1002E0009392D00E276E4CDF276A4ADF17C027F0A3
:1002F00047DF938000009382000081A2FED78A909E
:10030000939000008A929392D00E276E39DF070EE9
:10031000276E36DF100E276E33DF93900000938236
:1003200081A2FED7000000D00000938000003DEFC6
:1003300003F0938293803EEF03F017509EA8FED700
:10034000AD6E18509EA8FED7AD6E19509EA8FED770
:10035000AD6E1A509EA8FED7AD6E9EAAFED7AECF48
:1003600001F0C8EF05F019509EA8FED7AD6E1850E9
:100370009EA8FED7AD6E17509EA8FED7AD6E9EAA62
:10038000FED7AECF01F01200080E016E00008A9277
:10039000939200001E368A90D8B09380D8A0939094
:1003A000938281A2FED7012EF1D700008A92939208
:1003B0000000938000000000938281A2FED7016AB2
:1003C000000081B001808A9293928A9093901200EB
:1003D00093800000938200008A90939000008A929C
:1003E0009392A00E1E6ED0DF01501D9001B01D80B3
:1003F00093900000938281A2FED7000000D00000FD
:1004000093800000000E1DA0010E016E1200080E68
:100410001E6E00C01FF093800000938281A2FED761
:1004200081B0D88081A0D8900136000093928A9242
:100430001E2EF1D7938000008A901F50D8A493906D
:100440000000938281A2FED700008A92939200005E
:100450008A90939078EF02F0BBDF0152FDE0938029
:100460000000938200008A90939000008A929392F9
:100470001B30036E1A30026E033202320332023234
:1004800003320232033202320332023203320232C8
:10049000010E03160250A009FE0B1D6E1E6E74DFC6
:1004A0001AC01EF071DF938000009382000081A2C9
:1004B000FED78A90939000008A9293921B30036E2D
:1004C0001A30026E03320232033202320332023237
:1004D000033202320332023203320232010E0316B9
:1004E0000250A00901091D6E1E6E4EDF006A8FD7F3
:1004F00001C01CF093900000938281A2FED70000FF
:1005000000D00000938000001CC001F0120060DFEA
:100510000152FDE093800000938200008A90939046
:1005200000008A9293921B30036E1A30026E0332DF
:100530000232033202320332023203320232033217
:10054000023203320232010E03160250A009FE0BE2
:100550001D6E1E6E19DF1AC01EF016DF1CC01EF0C5
:1005600013DF93900000938281A2FED7000000D099
:1005700000009380000012009EA8FED7AD6E12000E
:100580001B6A1A6A17C01CF0C2DF1B6A010E1A6EC2
:1005900018C01CF0BCDF1B6A020E1A6E19C01CF0DA
:1005A000B6DFC8EF05F0259E3F0E231693800000AE
:1005B000938200008A90939000008A929392D00ECA
:1005C000276EDEDD276ADCDD25C026F034DE01C0C3
:1005D00026F001C027F0D4DD24C026F02CDE01C0B7
:1005E00026F001C027F0CCDD23C026F024DE01C0B8
:1005F00026F001C027F0C4DD17C026F01CDE01C0C4
:1006000026F001C027F0BCDD18C026F014DE01C0C2
:1006100026F001C027F0B4DD19C026F00CDE01C0C1
:1006200026F001C027F0ACDD1AC026F004DE01C0C0
:1006300026F001C027F0A4DD100E276EA1DD9390F7
:100640000000938281A2FED7000000D000009380BA
:100650000000C8EF05F0F86AD09EB886810EAF6E34
:10066000000EB06EA60EAC6E900EAB6EC150C00BFD
:100670000F09C16E070EB46EF2D55BD69EAA88D262
:100680009EAAFED7AE5013E0010AD8B4A9D1030A3E
:10069000D8B4FAD1010AD8B424D2070AD8B434D2D3
:1006A000010AD8B440D2030AD8B453D271D293808D
:1006B0000000938200008A90939000008A929392A7
:1006C000D00E276E5DDD030E276E5ADD938000008D
:1006D0009382000081A2FED78A90939000008A92B4
:1006E0009392D10E276E4CDD010E006E6DDD015030
:1006F0007F0B176E246E8CDD01C005F0010E006EBD
:1007000063DD01503F0B176E246E82DD01C006F0E1
:10071000010E006E59DD01501F0B176E246E78DD3F
:1007200001C007F0006A50DD01C017F001C024F0DD
:100730006FDD01C008F093900000938281A2FED784
:10074000000000D00000938000000750010A1CE068
:10075000030A26E0010A30E0070A3AE0010A44E011
:10076000030A4EE0010A58E00F0AD8B461D0010A2A
:10077000D8B46AD0030AD8B473D0010AD8B47CD0F4
:10078000070AD8B485D090D0EA6A0D0EE96E000E43
:1007900089DC0A000900F550EE6E0009FBE190D0FB
:1007A000EA6A0D0EE96E000E87DC0A000900F550BA
:1007B000EE6E0009FBE184D0EA6A0D0EE96E000ED0
:1007C00035DC0A000900F550EE6E0009FBE178D037
:1007D000EA6A0D0EE96E000E79DC0A000900F55098
:1007E000EE6E0009FBE16CD0EA6A0D0EE96E000EB8
:1007F00077DC0A000900F550EE6E0009FBE160D0DD
:10080000EA6A0D0EE96E000E75DC0A000900F5506B
:10081000EE6E0009FBE154D0EA6A0D0EE96E000E9F
:1008200073DC0A000900F550EE6E0009FBE148D0C8
:10083000EA6A0D0EE96E000E71DC0A000900F5503F
:10084000EE6E0009FBE13CD0EA6A0D0EE96E000E87
:100850006FDC0A000900F550EE6E0009FBE130D0B4
:10086000EA6A0D0EE96E000E6DDC0A000900F55013
:10087000EE6E0009FBE124D0EA6A0D0EE96E000E6F
:100880006BDC0A000900F550EE6E0009FBE118D0A0
:10089000EA6A0D0EE96E000E69DC0A000900F550E7
:1008A000EE6E0009FBE10CD0EA6A0D0EE96E000E57
:1008B00048EC00F00A000900F550EE6E0009FBE17B
:1008C00005500DE0010A18E0030A23E0010A2EE0BA
:1008D000070A39E0010A44E0030A4FE05BD0EA6A04
:1008E000090EE96E000E02EC00F00A000900F55056
:1008F000EE6E0009FBE15AD0EA6A090EE96E000EBD
:100900000CEC00F00A000900F550EE6E0009FBE166
:100910004DD0EA6A090EE96E000E16EC00F00A00EE
:100920000900F550EE6E0009FBE140D0EA6A090EBD
:10093000E96E000E20EC00F00A000900F550EE6EA2
:100940000009FBE133D0EA6A090EE96E000E2AECD9
:1009500000F00A000900F550EE6E0009FBE126D018
:10096000EA6A090EE96E000E34EC00F00A00090094
:10097000F550EE6E0009FBE119D0EA6A090EE96E46
:10098000000E3EEC00F00A000900F550EE6E000982
:10099000FBE10CD0EA6A090EE96E000E48EC00F0AB
:1009A0000A000900F550EE6E0009FBE105C017F0E2
:1009B00006C018F007C019F008C01AF009C01BF0F3
:1009C0000AC01CF00BC01DF00CC01EF00DC01FF0C3
:1009D0000EC020F00FC021F010C022F0AED4D8D04D
:1009E00093800000938200008A90939000008A9286
:1009F0009392D00E276EC0EC00F0276AC0EC00F096
:100A0000938000009382000081A2FED78A90939089
:100A100000008A929392D10E276EC0EC00F0010E76
:100A2000006EE4EC00F001507F0B176E246E08ECB2
:100A300001F001C016F0010E006EE4EC00F0015070
:100A40007F0B176E246E08EC01F001C015F0006AF0
:100A5000E4EC00F001503F0B176E246E08EC01F03F
:100A600001C014F093900000938281A2FED7000091
:100A700000D000009380000016C019F015C018F0D7
:100A800014C017F070DC84D01B6A1A6AE5DC013CE4
:100A90000FD01B6A1A6A080E1C6E39DD1B6A010E24
:100AA0001A6E1C6A34DD1B6A020E1A6E1C6A2FDD78
:100AB0001B6A1A6AD1DC01C011F01B6A010E1A6EA2
:100AC000CBDC01C012F01B6A020E1A6EC5DC01C03D
:100AD00013F013C019F012C018F011C017F043DC66
:100AE00057D09EAAFED7AECF05F09EAAFED7AECFB6
:100AF00006F09EAAFED7AECF07F09EAAFED7AECFD5
:100B000008F0000E39DD44D09EAAFED7AECF16F015
:100B10009EAAFED7AECF15F09EAAFED7AECF14F098
:100B2000000E2ADD35D09EAAFED7AECF13F09EAAC6
:100B3000FED7AECF12F09EAAFED7AECF11F0000EB8
:100B40001BDD13C019F012C018F011C017F018D532
:100B50001FD005C017F006C018F007C019F008C074
:100B60001AF009C01BF00AC01CF00BC01DF00CC02D
:100B70001EF00DC01FF00EC020F00FC021F010C0FD
:100B800022F016C025F015C024F014C023F00BD5B8
:040B900075D5030014
:020000040030CA
:0E0000003FCC3E1E0087A1000FC00FE00F4056
:00000001FF
;PIC18F4550
;CRC=C5D4  CREATED="24-Aug-21 16:51"
