:1000000097EF01F0F76A140FF66E000EF722090061
:10001000F5501200280C01064E756D3A20200000A4
:10002000436861723A200000EA6A2B0EE96EEF50D5
:100030000DE0060E016E006A002EFED7012EFBD7E2
:100040007B0E006E002EFED7EF2EF3D71200313854
:10005000F00B006E0F0E81140010816E0000818085
:10006000020E006E002EFED700D00000819012001C
:10007000F00E936E818400008180000081380F0BA8
:10008000316E81900000818000D000D00000813866
:100090000F0B306E8190000E936E3138006EF00EB3
:1000A000001600503010016E58EF00F08192E0D73A
:1000B00001C030F001BEFBD72EA081922EB081820C
:1000C00000008194000081902F38306E0F0E3016A2
:1000D00030C031F0BCDF2F500F0B306E316EB7DF08
:1000E0001200000E936E8192819481900F0E2B6E00
:1000F0009BDF010E286E2850030808E3030E316EC3
:10010000A6DF050E2B6E90DF282AF5D7020E316E82
:100110009EDF286A2850030809E3036A285072DF2B
:10012000296E2E6A2F6EC2DF282AF4D7D3EF01F092
:100130000F0E956ED4EF01F028C014F0D7EF01F048
:1001400028C012F0DAEF01F029682A6A2A50030861
:1001500034E3F70E006E2A50016E04E0D8900032AE
:10016000012EFCD700500038F00B006E0F0E8314E8
:100170000010836E2B6A2B5003081DE383500F0B76
:100180002C6EF70E006E2B50016E04E0D8900032FA
:10019000012EFCD700502C5C0CE12A50040DF350CA
:1001A0002B24036A160FE96E000E0320EA6EEFCFD0
:1001B00029F02B2AE0D72A2AC9D7285204E029C0DF
:1001C00001F00DD008D0293C06D005C029F0056803
:1001D00029C001F004D029C005F0FF0E016E120005
:1001E000010E2C5CFC0F0EE2040F0AEF01F0800EF2
:1001F0002D6E08D0C00E2D6E05D0940E2D6E02D03F
:10020000D40E2D6E010E2B5C2D262E6A2DC02FF0E4
:100210004DDF1200E824F76AF7362F0FF66E020E54
:10022000F7220A00F550FA6E0800F550F96EEE015B
:10023000F401FA0100022A500C0A05E0060A0DE05A
:10024000020A12E016D02E6A010E2F6E2FDF010E69
:10025000046E020E2B6EE8DE11D0042A010E2B6E06
:1002600004C02CF0BDDF0AD02E6A100E2F6E1EDFE8
:1002700005D0010E2E6E2AC02FF018DF12000900E3
:10028000F5520CE0F6CF28F0F7CF29F0F5CF2AF0A1
:10029000D2DF28C0F6FF29C0F7FFF1D712002B509C
:1002A000016A2A5C03E22AC000F00CD0006A080E42
:1002B0002C6E2A3600362B50005CD8B0006E01360A
:1002C0002C2EF7D71200015028C02AF0640E2B6E96
:1002D000E6DF00C028F00150300E07E129A20CD063
:1002E00029B60AD029B8200E03D02996299829804A
:1002F000012601C02AF09FDF28C02AF00A0E2B6ECB
:10030000CEDF00C028F00150300E06E129B608D03B
:1003100029A006D029B8200E012601C02AF08BDFC3
:10032000300E282628C02AF086DFF4EF01F0F86AA4
:10033000D09E0568C150C00B0F09C16E070EB46E88
:1003400012D0200006313233413435364237383945
:10035000432A3023440102030A0405060B07080957
:100360000C0F000E0D00000EF86E030EF76E420E1D
:10037000F66E0900F550006E000A13E00900F55012
:10038000016EE8BE05D00F0BEA6E0900F5CFE9FF5C
:1003900001BC090001AC0900F5CFEEFF004EE9D722
:1003A000F9D7F86A9ED6C4D6450E286EC5D6460E35
:1003B000286EC6D6010E286EC7DE01C026F0286A58
:1003C000C3DE01C027F0010E2B6E2C6E09DF180E64
:1003D000F66E000EF76E53DF263C01D005D026C026
:1003E00028F01B0E296E6FD7010E2B6E020E2C6E9D
:1003F000F7DE200EF66E000EF76E41DF273C01D0CF
:1004000003D027C02AF017DF320E2B6E0DDED2D7B5
:020410000300E7
:020000040030CA
:0E0000003FCC3E1E0087A1000FC00FE00F4056
:00000001FF
;PIC18F4550
;CRC=5055  CREATED="26-Aug-21 14:05"
