:1000000058EF01F0F76A140FF66E000EF7220900A0
:10001000F5501200280C0106EA6A0D0EE96EEF5049
:100020000DE0060E016E006A002EFED7012EFBD7F2
:100030007B0E006E002EFED7EF2EF3D71200133882
:10004000F00B006E0F0E81140010816E0000818095
:10005000020E006E002EFED700D00000819012002C
:10006000F00E936E818400008180000081380F0BB8
:10007000136E81900000818000D000D00000813894
:100080000F0B126E8190000E936E1338006EF00EFF
:10009000001600501210016E50EF00F08192E0D770
:1000A00001C012F001BEFBD710A0819210B0818276
:1000B00000008194000081901138126E0F0E12160C
:1000C00012C013F0BCDF11500F0B126E136EB7DFAE
:1000D0001200000E936E8192819481900F0E0D6E2E
:1000E0009BDF010E056E0550030808E3030E136E37
:1000F000A6DF050E0D6E90DF052AF5D7020E136EF2
:100100009EDF056A0550030809E3036A05507ADF9C
:10011000066E106A116EC2DF052AF4D761EF01F096
:10012000F80E926E62EF01F0926A05C089FF65EFEA
:1001300001F0926880CF01F066EF01F00D50016A86
:100140000C5C03E20CC000F00CD0006A080E0E6ECE
:100150000C3600360D50005CD8B0006E01360E2E05
:10016000F7D71200010E0E5CFC0F0EE2040FCDEF6C
:1001700000F0800E0F6E08D0C00E0F6E05D0940EEA
:100180000F6E02D0D40E0F6E010E0D5C0F26106A9A
:100190000FC011F083DF01EF01F0E824F76AF736B2
:1001A000B50FF66E010EF7220A00F550FA6E080040
:1001B000F550F96E720178017E0184010C500C0A31
:1001C00005E0060A0DE0020A12E016D0106A010EE0
:1001D000116E64DF010E046E020E0D6E1DDF11D074
:1001E000042A010E0D6E04C00EF0BCD70AD0106AAE
:1001F000100E116E53DF05D0010E106E0CC011F001
:100200004DDF1200200E07A8300E086E06C000F069
:1002100006AE08D0001E002A00C006F02D0E086EA3
:10022000078E0780015006C00CF0640E0D6E86DF4D
:1002300000C006F0300E0124096E06C00CF00A0E54
:100240000D6E7CDF300E00240B6E300E01240A6E22
:1002500008C000F0300E095C04E0078207BE078486
:1002600012D008C009F0200E086E300E0A5C04E0BF
:10027000078007BE078207D0D8A4078004E109C021
:100280000AF0200E096E07B405D007B206D007B0F9
:1002900007D009D008C00CF091DF09C00CF08EDF48
:1002A0000AC00CF08BDF0BC00CF088DF6DEF01F0A3
:1002B000F86AD09EC150C00B0F09C16E070EB46E14
:1002C00008D72ED7050E056E2FD733D701C005F0FE
:0E02D00001C006F0180E076E95D7F4D7030094
:020000040030CA
:0E0000003FCC3E1E0087A1000FC00FE00F4056
:00000001FF
;PIC18F4550
;CRC=3B32  CREATED="26-Aug-21 13:18"
