:1000000094EF03F0F76A140FF66E000EF722090062
:10001000F5501200280C01060A43726561746520D0
:100020004E65772050617373776F72643A0A0000EF
:100030000C0A53617665642050617373776F726444
:100040003A0A00000C0A20202056616C6964617431
:10005000696E67000C0A496E76616C6964205061B4
:100060007373776F72640A00426C6F636B65640030
:1000700054727920616761696E20696E202533753D
:1000800073000C0A436F727265637420506173735E
:10009000776F726400002A2A2A2A2A2A2A2A2A2A00
:1000A0002A2A2A2A2A2A2A2A2A2A0A002A202044F4
:1000B00069656C656374726F6E6963277320202AAB
:1000C0000A002A202020202020202020202020205C
:1000D00020202020202A0A002A2A2A2A2A2A2A2AFC
:1000E0002A2A2A2A2A2A2A2A2A2A2A2A0A002020CE
:1000F0002020202020202020202020202020202000
:1001000020200000EA6A610EE96EEF500DE0060E55
:10011000016E006A002EFED7012EFBD77B0E006E0B
:10012000002EFED7EF2EF3D712006739F00B006ECA
:100130000F0E81140010816E00008180020E006E8F
:10014000002EFED700D0000081901200F00E936EBA
:10015000818400008180000081380F0B676F8190DF
:100160000000818000D000D0000081380F0B666F46
:100170008190000E936E6739006EF00E00160050ED
:100180006611016EC6EF00F08192E0D701C066F003
:1001900001BEFBD764A1819264B181820000819489
:1001A000000081906539666F0F0E661766C067F0B4
:1001B000BCDF65510F0B666F676FB7DF1200000E73
:1001C000936E8192819481900F0E616F9BDF010E7F
:1001D0005A6E5A50030808E3030E676FA6DF050E38
:1001E000616F90DF5A2AF5D7020E676F9EDF5A6A59
:1001F0005A50030809E3036A5A5004DF5B6E646BCC
:10020000656FC2DF5A2AF4D700EF04F0F80E926E41
:1002100001EF04F00F0E956E02EF04F05FC00AF0DC
:100220005EC009F05DC008F05CC007F010EF04F09C
:10023000926A896A11EF04F05AC018F014EF04F0C2
:100240005AC01AF016EF04F0926A5AC089FF1200E1
:10025000010E625DFC0F0EE2040F42EF01F0800E12
:10026000636F08D0C00E636F05D0940E636F02D029
:10027000D40E636F010E615D6327646B63C065F02C
:1002800083DF1200E824F76AF7369F0FF66E020E3E
:10029000F7220A00F550FA6E0800F550F96E5E027A
:1002A00064026A02700260510C0A05E0060A0DE061
:1002B000020A12E016D0646B010E656F65DF010E55
:1002C000046E020E616F1EDF11D0042A010E616FF1
:1002D00004C062F0BDDF0AD0646B100E656F54DF9E
:1002E00005D0010E646F60C065F04EDF120009009A
:1002F000F5520CE0F6CF5EF0F7CF5FF0F5CF60F08F
:10030000D2DF5EC0F6FF5FC0F7FFF1D71200010E2B
:10031000616F626F9DDF960EF66E000EF76EE7DF7F
:10032000AC0EF66E000EF76EE2DFC20EF66E000E39
:10033000F76EDDDFD80EF66E000EF76ED8DF1CEF1D
:1003400004F05F68606B6051030834E3F70E006EE1
:100350006051016E04E0D8900032012EFCD70050AD
:100360000038F00B006E0F0E83140010836E616B6B
:10037000615103081DE383500F0B626FF70E006E8F
:100380006151016E04E0D8900032012EFCD700507C
:10039000625D0CE16051040DF3506125036A0C0F9E
:1003A000E96E000E0320EA6EEFCF5FF0612BE0D71D
:1003B000602BC9D75E5209E05F500B5C06E05FC05E
:1003C0000BF05FC001F00DD008D05F3C06D00BC031
:1003D0005FF00B685FC001F004D05FC00BF0FF0E50
:1003E000016E12005C685D6A5D5013082BE35C527D
:1003F00029E0010E5E6EA5DF01C05CF05C3C01D01F
:10040000F8D75C50080811E1010E616F030E626FAE
:100410001FDFEE0EF66E000EF76E69DF010E616FE4
:10042000030E626F15DF5D680BD05CC060F03BDFD0
:100430005D505A24E96E000E5B20EA6E5CC0EFFF4F
:100440005D2AD2D712005C6A5C505A24E96E000E15
:100450005B20EA6EEF5220E05C505A24E96E000EF9
:100460005B20EA6EEFCF5DF0F250006EF29E5CC052
:10047000A9FF5DC0A8FFA69CA69EA6840F01550EED
:10048000A76EAA0EA76EA682A6B2FED7A6940050AB
:10049000F2125C2A0001D8D742EF04F0EF520FE0CD
:1004A000EACF5BF0E9CF5AF0EFCF60F0FCDE5BC043
:1004B000EAFF5AC0E9FFE92AD8B4EA2AEFD74BEF9E
:1004C00004F05C6A5C505A24E96E000E5B20EA6E10
:1004D000EF5214E05C505A24E96E000E5B20EA6E85
:1004E000F2CF5FF0F29E5CC0A9FFA69CA69EA680FC
:1004F000A8505FBEF28EEF6E5C2AE4D757EF04F08F
:100500005AC0E9FF5BC0EAFFEFCF5EF05DC003F0C9
:100510005CC0E9FF5DC0EAFFEF505E5C15E15BC0C7
:1005200003F05AC0E9FF03C0EAFFEF5203E1000EF7
:10053000016E1FD05BC003F05A505A2AD8B45B2A10
:100540005C2AD8B45D2ADCD75BC003F05AC0E9FF4F
:100550005BC0EAFFEFCF5EF05DC003F05CC0E9FF77
:100560005DC0EAFFEF505E5C02E2FF0E01D0010EBB
:10057000016E7CEF04F0626B636B010E646FDA6AEC
:10058000D96A676B5A0E666FEA6A5E0EE96E67C0DB
:10059000E2FF66C0E1FF64C065F0D890E550EE026E
:1005A000F3506223F4506323652FF7D762C0DEFF58
:1005B00063C062F0636BD8B0632B662BD8B4672B33
:1005C000642B64510508E0E118EF03F0016A026A48
:1005D000006A036A605102E15F5018E0100E616F1B
:1005E000D8905D365E36003603366051035C02E11A
:1005F0005F50005C07E35F50005ED8A003066051C7
:10060000035ED88001360236612FEAD712000AC095
:100610005DF009C05CF008C05BF007C05AF0410E05
:10062000616FC60E606F4E0E5F6E6D0E5E6EA3D76D
:10063000390E0024076E300E0120086E000E0220D5
:10064000096E000E03200A6E09C000F00AC001F016
:10065000026A036A0AC05CF009C05BF00AC05EF07F
:1006600009C05DF07F0E606F5F68B0DF00C001F011
:1006700003C002F0A8EF04F00900F6CF5BF0F7CF5B
:100680005CF0F5CF60F00FDE5BC0F6FF5CC0F7FFFB
:100690005A2EF2D7C2EF04F05D50016A5C5C03E2AF
:1006A0005CC000F00CD0006A080E5E6E5C3600364E
:1006B0005D50005CD8B0006E01365E2EF7D7120098
:1006C00001505AC05CF0640E5D6EE6DF00C05AF067
:1006D0000150300E07E15BA20CD05BB60AD05BB8CC
:1006E000200E03D05B965B985B80012601C060F012
:1006F000DADD5AC05CF00A0E5D6ECEDF00C05AF043
:100700000150300E06E15BB608D05BA006D05BB8A6
:10071000200E012601C060F0C6DD300E5A265AC0F8
:1007200060F0C1DDC7EF04F0F86AD09E0B68C150DD
:10073000C00B0F09C16E070EB46E15D00200050084
:100740000020000C313233413435364237383943DA
:100750002A3023440102030A0405060B0708090C8A
:100760000F000E0D0000000EF86E070EF76E3C0E27
:10077000F66E0900F550006E000A13E00900F5500E
:10078000016EE8BE05D00F0BEA6E0900F5CFE9FF58
:1007900001BC090001AC0900F5CFEEFF004EE9D71E
:1007A000F9D7F86A2C6A2D6A2E6A2F6A306A316A84
:1007B000326A336A346A356A366A376A386A396A3D
:1007C0003A6A3B6A3C6A3D6A3E6A3F6A406A416AED
:1007D000426A436A446A456A466A476A486A496A9D
:1007E0004A6A4B6A4C6A4D6A4E6A4F6A506A516A4D
:1007F000526A536A546A556A566A576A5890DFD4E7
:1008000005D508D5FE0E946ED650D7CF03F05A6E9C
:10081000D7CF5BF05F6A5E6AD7CF5DF05C6EFED4C7
:1008200007D5080E5A6E08D55A6A0AD594908B904F
:10083000040E5A6E09DD6BD5020E5A6EFA0E616F08
:1008400061DC5A2EFBD70C0E606F2DDDF2CF5AF013
:10085000F29EA96AA69CA69EA680A8505ABEF28EB9
:10086000FF0821E1050E5A6EEFDC180EF66E000E41
:10087000F76E3DDD5B6A2C0E5A6EB4DD5B6A2C0EA2
:100880005A6EE1D5300EF66E000EF76E30DDEA6A74
:100890002C0EE96E03D6020E5A6EFA0E616F32DC30
:1008A0005A2EFBD704D05B6A2C0E5A6E0AD658B06B
:1008B0008FD0060E5A6EC8DC5B6A410E5A6E92DD0E
:1008C000562A440EF66E000EF76E11DDC80E616FEB
:1008D00019DC596A5950040808E32E0E606FE3DCF6
:1008E000C80E616F0FDC592AF5D75B6A2C0E5A6E61
:1008F0005D6A410E5C6E04D6015257E0010E5A6EDD
:10090000A3DC540EF66E000EF76EF1DC020E5A6E8A
:10091000FA0E616F82EC00F05A2EFAD75650030A95
:1009200007E0060A08E00F0A09E0050A0AE020D0FD
:100930001E0E576E1ED03C0E576E1BD0780E576E93
:1009400018D05880680EF66E000EF76ED0DC5FD6B9
:1009500002C05BF001C05AF002C05EF001C05DF061
:10096000606BB40E5F6E32DE780E0024576E01D0DD
:10097000576A575219E0700EF66E000EF76E0D0EA4
:100980005A6E7AD657C05AF0130E5B6E99D6730E14
:10099000606F89DC040E5A6EFA0E616F82EC00F013
:1009A0005A2EFAD75706E5D712D0020E5A6E4CDCF3
:1009B000820EF66E000EF76E9ADC94908B80010E1C
:1009C0005E6EBFDC013CFBD794908B90566A6FD76C
:0209D000030022
:020000040030CA
:0E0000003FCC3E1E0087A1000FC00FE00F4056
:00000001FF
;PIC18F4550
;CRC=DC70  CREATED="02-Sep-21 11:01"
