:10000000DFEF00F0F76A140FF66E000EF72209001A
:10001000F5501200280C0106EA6A140EE96EEF5042
:100020000DE0060E016E006A002EFED7012EFBD7F2
:100030007B0E006E002EFED7EF2EF3D712001A387B
:10004000F00B006E0F0E81140010816E0000818095
:10005000020E006E002EFED700D00000819012002C
:10006000F00E936E818400008180000081380F0BB8
:100070001A6E81900000818000D000D0000081388D
:100080000F0B196E8190000E936E1A38006EF00EF1
:10009000001600501910016E50EF00F08192E0D769
:1000A00001C019F001BEFBD717A0819217B0818261
:1000B00000008194000081901838196E0F0E1916F7
:1000C00019C01AF0BCDF18500F0B196E1A6EB7DF8B
:1000D0001200000E936E8192819481900F0E146E27
:1000E0009BDF010E126E1250030808E3030E1A6E16
:1000F000A6DF050E146E90DF122AF5D7020E1A6ED7
:100100009EDF126A1250030809E3036A12507ADF75
:10011000136E176A186EC2DF122AF4D7E8EF00F0E8
:10012000010E155CFC0F0EE2040FAAEF00F0800E2A
:10013000166E08D0C00E166E05D0940E166E02D044
:10014000D40E166E010E145C1626176A16C018F02F
:10015000A5DF1200E824F76AF7366F0FF66E010E7E
:10016000F7220A00F550FA6E0800F550F96E2E01DC
:1001700034013A01400113500C0A05E0060A0DE073
:10018000020A12E016D0176A010E186E87DF010E00
:10019000046E020E146E40DF11D0042A010E146E9C
:1001A00004C015F0BDDF0AD0176A100E186E76DF96
:1001B00005D0010E176E13C018F070DF1200F86A38
:1001C000D09EC150C00B0F09C16E070EB46E81D70F
:1001D000010E146E156EA4DF056A010E066E076E21
:1001E000440E0A6E690E0B6E650E0C6E670E0D6E78
:1001F0006F0E0E6E0F6A106A096A0A0E086E116A97
:1002000011500824016E000E0920036E01C0E9FFA1
:10021000EA6EEF5202E0112AF3D705500824016E6E
:10022000000E0920036E01C0E9FFEA6EEFCF12F065
:1002300012C013F0A0DF1150055C1AE1640E146EB9
:10024000EBDE056A062A0650140806E2010E066E69
:100250000724030B010F076E06C014F007C015F04A
:100260005FDF080E136E87DF200E136E84DF07D06A
:1002700005500624130803E20A0E136E7CDFCDD767
:02028000030079
:020000040030CA
:0E0000003FCC3E1E0087A1000FC00FE00F4056
:00000001FF
;PIC18F4550
;CRC=1EF3  CREATED="26-Aug-21 14:07"
