:100000004FEF01F0F76A140FF66E000EF7220900A9
:10001000F5501200280C0106EA6A090EE96EEF504D
:100020000DE0060E016E006A002EFED7012EFBD7F2
:100030007B0E006E002EFED7EF2EF3D712000D3888
:10004000F00B006E0F0E81140010816E0000818095
:10005000020E006E002EFED700D00000819012002C
:10006000F00E936E818400008180000081380F0BB8
:100070000D6E81900000818000D000D0000081389A
:100080000F0B0C6E8190000E936E0D38006EF00E0B
:10009000001600500C10016E50EF00F08192E0D776
:1000A00001C00CF001BEFBD70AA081920AB0818288
:1000B00000008194000081900B380C6E0F0E0C161E
:1000C0000CC00DF0BCDF0B500F0B0C6E0D6EB7DFCC
:1000D00092EF00F0000E936E8192819481900F0E4A
:1000E000096E9ADF010E086E0850030808E3030E3C
:1000F0000D6EA5DF050E096E8FDF082AF5D7020EFB
:100100000D6E9DDF086A085003080EE3036A08506D
:10011000F2CF09F0F29E76DF09BEF28E096E0A6A0E
:100120000B6EBCD7082AEFD766EF01F00F0E956E65
:1001300067EF01F00F0E83147009836E83500F0B6D
:10014000070A07E00C0A0CE0060A11E0030A16E0B1
:100150001CD083500F0B0708FCE0010E016E98D0F5
:1001600083500F0B0B08FCE0020E016E91D0835000
:100170000F0B0D08FCE0030E016E8AD083500F0BAD
:100180000E08FCE00A0E016E83D00F0E8314B00936
:10019000836E83500F0B070A07E00C0A0CE0060A77
:1001A00011E0030A16E01CD083500F0B0708FCE097
:1001B000040E016E6DD083500F0B0B08FCE0050E92
:1001C000016E66D083500F0B0D08FCE0060E016E29
:1001D0005FD083500F0B0E08FCE00B0E016E58D061
:1001E0000F0E8314D009836E83500F0B070A07E0AC
:1001F0000C0A0CE0060A11E0030A16E01CD083503A
:100200000F0B0708FCE0070E016E42D083500F0B66
:100210000B08FCE0080E016E3BD083500F0B0D085D
:10022000FCE0090E016E34D083500F0B0E08FCE089
:100230000C0E016E2DD00F0E8314E009836E8350D7
:100240000F0B070A07E00C0A0CE0060A11E0030A8C
:1002500016E01CD083500F0B0708FCE00F0E016E58
:1002600017D083500F0B0B08FCE0000E016E10D06E
:1002700083500F0B0D08FCE00E0E016E09D0835069
:100280000F0B0E08FCE00D0E016E02D0FF0E016E8A
:1002900070EF01F09EA8FED7AD6E77EF01F0F86A1F
:1002A000D09EB886080EAF6E020EB06EA60EAC6E73
:1002B000900EAB6E2A0E056E230E066EC150C00B5B
:1002C0000F09C16E070EB46E076A04D72FD7F80E58
:1002D000926EFE0E946E94908B90926A896A2AD7E1
:1002E00001C007F00750FF0802E00750D3D79EAACD
:1002F0000FD09EAAFED7AECF07F00750070803E342
:10030000926A07C089FF07500A0802E194908B7037
:04031000E6D7030029
:020000040030CA
:0E0000003FCC3E1E0087A1000FC00FE00F4056
:00000001FF
;PIC18F4550
;CRC=86CF  CREATED="25-feb.-20 21:15"
